:020000040000FA
:060000008A110A127428A7
:08000800F000030EF1000A08EC
:10001000F2000B1D14288B1E14280B118B12831257
:100020000313121D76146B28831203130C1C6B2808
:10003000831603130C1C6B28831203130C10F80B8C
:1000400035281930F7008A110A12392006308A1132
:100050000A12C5208A110A12D920143C03186628F6
:100060002830F9008A110A1248288A110A129420AD
:100070006B28F70B3C28080083120313880108142F
:100080008A110A12A22008108A110A12A220392805
:10009000F90B4B2862288A110A1255208A110A127C
:1000A000A2208A110A12A22048285F308316031367
:1000B00092000310120C8312031395008312031392
:1000C0001215080083120313121188013C30F80046
:1000D0008A110A12942072088A00710E8300F00EB1
:0400E000700E090095
:0400E40000340034B0
:0800E8008A110A12AA208312FA
:1000F000031388013C30F8008A110A1294208316F9
:1001000003130C140B178B17761476148B137618B5
:100110008B288B17862883120313881163008B1793
:10012000831203138815852883120313101083127A
:100130000313FA308E007F308F000C1083120313EC
:10014000101408003D308312031381000B110B1DA6
:10015000A728080083160313073081008B0183163C
:100160000313FB308700F0308800831603178901E2
:10017000831203130E309000831203130330920096
:10018000831203130C3097000800831203131F140B
:10019000F3000310F30DF30DC13073049F009F149F
:1001A0009F18D028831203131E08831203131F10F5
:1001B0000800F4001F30F4020310F40DF5010330C1
:1001C0007402031CE628F400F50ADF28750808000D
:02400E00F42C90
:00000001FF
